{
  "contractName": "SWToken",
  "abi": [
    {
      "constant": true,
      "inputs": [],
      "name": "name",
      "outputs": [
        {
          "name": "",
          "type": "string"
        }
      ],
      "payable": false,
      "stateMutability": "view",
      "type": "function",
      "signature": "0x06fdde03"
    },
    {
      "constant": true,
      "inputs": [
        {
          "name": "",
          "type": "address"
        }
      ],
      "name": "balanceOf",
      "outputs": [
        {
          "name": "",
          "type": "uint256"
        }
      ],
      "payable": false,
      "stateMutability": "view",
      "type": "function",
      "signature": "0x70a08231"
    },
    {
      "constant": true,
      "inputs": [],
      "name": "totalsupply",
      "outputs": [
        {
          "name": "",
          "type": "uint256"
        }
      ],
      "payable": false,
      "stateMutability": "view",
      "type": "function",
      "signature": "0x72dd529b"
    },
    {
      "constant": true,
      "inputs": [],
      "name": "symbol",
      "outputs": [
        {
          "name": "",
          "type": "string"
        }
      ],
      "payable": false,
      "stateMutability": "view",
      "type": "function",
      "signature": "0x95d89b41"
    },
    {
      "inputs": [
        {
          "name": "_initialSupply",
          "type": "uint256"
        }
      ],
      "payable": false,
      "stateMutability": "nonpayable",
      "type": "constructor",
      "signature": "constructor"
    }
  ],
  "bytecode": "0x60806040526040805190810160405280600981526020017f20535720546f6b656e00000000000000000000000000000000000000000000008152506000908051906020019061004f92919061012a565b506040805190810160405280600281526020017f53570000000000000000000000000000000000000000000000000000000000008152506001908051906020019061009b92919061012a565b503480156100a857600080fd5b5060405160208061057b833981018060405260208110156100c857600080fd5b810190808051906020019092919050505080600360003373ffffffffffffffffffffffffffffffffffffffff1673ffffffffffffffffffffffffffffffffffffffff1681526020019081526020016000208190555080600281905550506101cf565b828054600181600116156101000203166002900490600052602060002090601f016020900481019282601f1061016b57805160ff1916838001178555610199565b82800160010185558215610199579182015b8281111561019857825182559160200191906001019061017d565b5b5090506101a691906101aa565b5090565b6101cc91905b808211156101c85760008160009055506001016101b0565b5090565b90565b61039d806101de6000396000f3fe608060405260043610610062576000357c0100000000000000000000000000000000000000000000000000000000900463ffffffff16806306fdde031461006757806370a08231146100f757806372dd529b1461015c57806395d89b4114610187575b600080fd5b34801561007357600080fd5b5061007c610217565b6040518080602001828103825283818151815260200191508051906020019080838360005b838110156100bc5780820151818401526020810190506100a1565b50505050905090810190601f1680156100e95780820380516001836020036101000a031916815260200191505b509250505060405180910390f35b34801561010357600080fd5b506101466004803603602081101561011a57600080fd5b81019080803573ffffffffffffffffffffffffffffffffffffffff1690602001909291905050506102b5565b6040518082815260200191505060405180910390f35b34801561016857600080fd5b506101716102cd565b6040518082815260200191505060405180910390f35b34801561019357600080fd5b5061019c6102d3565b6040518080602001828103825283818151815260200191508051906020019080838360005b838110156101dc5780820151818401526020810190506101c1565b50505050905090810190601f1680156102095780820380516001836020036101000a031916815260200191505b509250505060405180910390f35b60008054600181600116156101000203166002900480601f0160208091040260200160405190810160405280929190818152602001828054600181600116156101000203166002900480156102ad5780601f10610282576101008083540402835291602001916102ad565b820191906000526020600020905b81548152906001019060200180831161029057829003601f168201915b505050505081565b60036020528060005260406000206000915090505481565b60025481565b60018054600181600116156101000203166002900480601f0160208091040260200160405190810160405280929190818152602001828054600181600116156101000203166002900480156103695780601f1061033e57610100808354040283529160200191610369565b820191906000526020600020905b81548152906001019060200180831161034c57829003601f168201915b50505050508156fea165627a7a7230582088852aa68dfd9e9d5d342d4142c111faeb0de0b50b32eb4f270fd9a9149907da0029",
  "source": "// pragma solidity ^0.5.0;\n\n// contract SWToken{\n//   //Constructor\n//   //Set the total number of tokens\n//   //Read the total number of tokens\n//     uint256 public totalsupply;\n\n//     constructor () public{\n//         totalsupply =1000000;\n//     }\n// }\n// ===============================================\npragma solidity ^0.5.0;\n\ncontract SWToken{\n  //Name\n  string public name =\" SW Token\";\n  //Symbol\n  string public symbol=\"SW\";\n  //Constructor\n  //Set the total number of tokens\n  //Read the total number of tokens\n    uint256 public totalsupply;\n  \n    mapping(address => uint256)public balanceOf;\n      // uint256=balance of address\n      // mapping is reposible for the token that have been sold or send to other address\n\n    constructor (uint256 _initialSupply) public{ \n        balanceOf[msg.sender]=_initialSupply;\n        totalsupply =_initialSupply;\n          // allocated the token\n\n\n\n    }\n}",
  "sourcePath": "/home/koompi/Desktop/real/token_sale/contracts/SWToken.sol",
  "compiler": {
    "name": "solc",
    "version": "0.5.0+commit.1d4f565a.Emscripten.clang"
  },
  "schemaVersion": "3.0.6",
  "updatedAt": "2019-04-22T10:47:28.515Z",
  "devdoc": {
    "methods": {}
  },
  "userdoc": {
    "methods": {}
  }
}